:100000000C9456000C9473000C9473000C947300C1
:100010000C9473000C9473000C9473000C94730094
:100020000C9473000C9473000C9473000C94730084
:100030000C9473000C9473000C9473000C94730074
:100040000C9473000C9473000C9473000C94730064
:100050000C9473000C9473000C9473000C94730054
:100060000C9473000C9473000C9473000C94730044
:100070000C9473000C9473000C9473000C94730034
:100080000C9473000C9473000C9473000C94730024
:100090000C9473000C9473000C9473000C94730014
:1000A0000C9473000C9473000C94730011241FBE05
:1000B000CFEFDAE0DEBFCDBF16E0A0E0B1E0EEEDBD
:1000C000F6E002C005900D92AA3DB107D9F716E0FF
:1000D000AAEDB6E001C01D92AC3DB107E1F70E9468
:1000E000A1010C946D030C940000CF93DF93C8EF33
:1000F000D1E080E090E00E94CE002197D1F780E02F
:1001000090E060E070E00E948800DF91CF91089558
:100110000F931F93CF93DF93EB0106EC10E0806801
:10012000F8010995CE018064F8010995DF91CF911E
:100130001F910F910895CF93DF93209A249A269AC6
:10014000229A219A859A1092640081E58CBD2C98A0
:100150002C9AC6ECD0E081E290E0FE01099580EB9C
:1001600090E0FE01099584E090E0FE01099584E1AC
:1001700090E0FE01099580E290E0FE0109958CE097
:1001800090E0FE010995DF91CF9108952E9828986F
:100190008EBD0DB407FEFDCF289A08952E9A28989B
:1001A0008EBD0DB407FEFDCF289A08950F931F93BF
:1001B000FC01E61BF70B021B130BE09FC001E19F44
:1001C000900DF09F900D1124FA01E61BF70BBF0173
:1001D0000E944603260F371F3093DB062093DA0672
:1001E0001F910F910895EAE7F0E080818760808396
:1001F000ACE7B0E08C9180648C938C9180628C939E
:100200008081806880838081806480838C91887FF6
:100210008C938C9184608C9380818062808308951C
:10022000EF92FF920F931F93CF93DF937C018B018B
:100230006830710528F460E070E00E948800E801F1
:10024000C80108978830910538F4C70161E070E073
:100250000E948800E8012897C801409788309105DE
:1002600038F4C70162E070E00E948800E8016097FE
:10027000C80148978830910538F4C70163E070E001
:100280000E948800E8016897C8018097883091052E
:1002900038F4C70164E070E00E948800E801A0978C
:1002A000C80188978830910538F4C70165E070E08F
:1002B0000E948800E801A897209729F481E090E047
:1002C0000E94CE0010C0C130D10529F482E090E038
:1002D0000E94CE0010C0C230D10529F484E090E025
:1002E0000E94CE0010C0C330D10529F488E090E010
:1002F0000E94CE0010C0C430D10529F480E190E006
:100300000E94CE0010C0C530D10529F480E290E0F3
:100310000E94CE000FC0C630D10529F480E490E0E1
:100320000E94CE0007C0C730D10521F480E890E0DC
:100330000E94CE00DF91CF911F910F91FF90EF901F
:100340000895CF93DF93CDB7DEB72A970FB6F89411
:10035000DEBF0FBECDBF0E949B000E94F30021E0D4
:1003600030E03A8329831A86198688EC90E09887D2
:100370008F8322243324882499248394CC24DD245D
:100380000F2EF5E06F2E7724F02D0F2EFAE2AF2E10
:10039000BB24F02D1E821D820F2EFAE0EF2EFF24CB
:1003A000F02DE1E0F0E0FC83EB834424552410C001
:1003B0000E94750029853A852130310539F480E0A5
:1003C00091E00E941F035C824B8202C05C824B82E0
:1003D00082010F5F1F4FC8018E0D9F1D68E270E004
:1003E0000E9410010F301105A1F78091DA0690915B
:1003F000DB068A3191056CF01E141F0454F4E98564
:10040000FA85309731F42D813E812F5F3F4F3E8337
:100410002D838F3091056CF434E4E316F1044CF431
:1004200089859A85009729F4ED81FE813197FE83B5
:10043000ED832D813E812531310534F00894E108AA
:10044000F1085E824D820BC08D819E81EFEF8C3E64
:100450009E072CF40894E11CF11C5E824D82C601BB
:10046000880F991F9C012C0D3D1DC401880F991FF9
:10047000880D991DB301681B790BC501821B930B75
:100480000E9410019601220F331FC401880F991F8B
:10049000B301681B790BC501821B930B0E941001ED
:1004A000B30168197909C5018C199D090E941001D1
:1004B000C501B3010E9410012F8138852215330533
:1004C00064F42531310524F02150304038872F83E2
:1004D000AC0CBD1C680C791C12010894211C311C49
:1004E000C7010F968A159B0554F1AE14BF043CF169
:1004F00038E2631671041CF19094819491089394EE
:10050000C114D10471F4C7010896A816B9067CF08D
:10051000CC24DD24C3940F2EF7E26F2E7724F02D28
:100520000EC00F2EF7E26F2E7724F02D08C0CC24DA
:10053000CA94DC2C0F2EF7E26F2E7724F02D84E086
:10054000A816B10424F4D094C194D108D39490E5B2
:10055000A916B10424F0D094C194D108D394E4E056
:100560006E16710424F49094819491089394FBE2A4
:100570006F16710434F021E030E03A872987420198
:10058000620189819A818335910511F45A824982E9
:10059000E9E7F0E0808190E0B2014FEF50E0920196
:1005A0000BE210E00E94D6002B813C812F5F3F4F71
:1005B0003C832B8389819A8101969A83898326398A
:1005C000310509F005CFF4CEEF92FF920F931F9300
:1005D000CF93DF93C82F0F2EFEECEF2EF0E0FF2E0F
:1005E000F02D80E090E0F70109952C2F30E0C90153
:1005F00080978C01000F111F000F111F080F191F8A
:1006000007501B4FE901CC0FDD1FCC0FDD1FC20FC0
:10061000D31FC25ADB4FF80181918F0190E0F7019F
:1006200009950C171D07B9F780E090E0F7010995CF
:10063000DF91CF911F910F91FF90EF900895CF938D
:10064000DF93EC018881882331F021960E94E40237
:1006500089918823D9F7DF91CF9108950F931F9344
:10066000CF93DF93082F192FC0E0D0E0F8018191DC
:100670008F0190E00E94CE002196F1E0C83FDF0795
:10068000A9F7DF91CF911F910F91089597FB092E44
:1006900007260AD077FD04D00CD006D000201AF42B
:1006A000709561957F4F0895F6F7909581959F4FCE
:1006B0000895AA1BBB1B51E107C0AA1FBB1FA617A9
:1006C000B70710F0A61BB70B881F991F5A95A9F7FB
:0E06D00080959095BC01CD010895F894FFCF60
:1006DE00594F55204C4F53450000000000000000BC
:1006EE0000000000000000000000000000000000FC
:1006FE0000000000000000000000000000000000EC
:10070E0000000000000000000000000000000000DB
:10071E0000000000000000000000000000000000CB
:1008FE0000000000E0F0F8FCFCFEFEFEFE1E0E0204
:10090E0000000000000000000000000000000000D9
:10091E0000000000000000000000000000000000C9
:10092E0000000000000000000000000000000000B9
:10093E0000000000000000000000000000000000A9
:10094E000000000000000000030F1F3F7FFFFFFFAD
:10095E00FFFFFEFCF8F8F0F8FEFEFCF8E0000000E9
:10096E000000000000000000000000000000000079
:10097E000000000000000000000000000000000069
:10098E000000000000000000000000000000000059
:10099E00000000F8FCFEFEFFFFF3E0E0C0C0C0E088
:1009AE00E0F1FFFFFFFFFFFFFFFFFFFFFFFFFFFF76
:1009BE00FF3E0000000000000000000000000000EC
:1009CE000000000000000000000000000000000019
:1009DE000000000000000000000000000000000009
:1009EE0000000000000000FFFFFFFFFFFFFFFFFF02
:1009FE00FFFFFFFFFFFFFFFFFFFFFFFFFFFFFFFFF9
:100A0E007F3F1F07010000000000000000000000F3
:100A1E0000000000000000000000000000000000C8
:100A2E0000000000000000000000000000000000B8
:100A3E000000000000000000000000FFFFFFFFFFAD
:100A4E00FFFF7F3F1F0F0F0F07070707070707035C
:100A5E000301010000000000000000000000000083
:100A6E000000000000000000000000000000000078
:100A7E000000000000000000000000000000000068
:100A8E000000000000000000000000000000003F19
:100A9E001F0F07030100000000000000000000000F
:100AAE000000000000000000000000000000000038
:100ABE000000000000000000000000000000000028
:100ACE000000000000000000000000000000000018
:100ADE005F00000007000700147F147F14242A7F94
:100AEE002A1223130864623649552250000503006A
:100AFE0000001C2241000041221C0014083E081474
:100B0E0008083E08080050300000080808080800D1
:100B1E006060000020100804023E5149453E00422C
:100B2E007F400042615149462141454B3118141214
:100B3E007F1027454545393C4A4949300171090521
:100B4E00033649494936064949291E003636000002
:100B5E000056360000081422410014141414140018
:100B6E00412214080201510906324979413E7E1193
:100B7E0011117E7F494949363E414141227F414113
:100B8E00221C7F494949417F090909013E414949D2
:100B9E007A7F0808087F00417F41002040413F01D5
:100BAE007F081422417F404040407F020C027F7F2D
:100BBE000408107F3E4141413E7F090909063E412E
:100BCE0051215E7F09192946464949493101017F64
:100BDE0001013F4040403F1F2040201F3F40384012
:100BEE003F631408146307087008076151494543B1
:100BFE00007F41410002040810200041417F0004A3
:100C0E000201020440404040400001020400205412
:100C1E005454787F4844443838444444203844443B
:100C2E00487F3854545418087E0901020C5252520F
:100C3E003E7F0804047800447D40002040443D007F
:100C4E007F1028440000417F40007C041804787C0B
:100C5E000804047838444444387C141414080814E6
:100C6E0014187C7C080404084854545420043F444F
:100C7E0040203C4040207C1C2040201C3C4030400A
:100C8E003C44281028440C5050503C4464544C446E
:100C9E00000836410000007F0000004136080010B9
:0A0CAE000808100878464146780057
:00000001FF
