:100000000C9456000C9473000C9473000C947300C1
:100010000C9473000C9473000C9473000C94730094
:100020000C9473000C9473000C9473000C94730084
:100030000C9473000C9473000C9473000C94730074
:100040000C9473000C9473000C9473000C94730064
:100050000C9473000C9473000C9473000C94730054
:100060000C9473000C9473000C9473000C94730044
:100070000C9473000C9473000C9473000C94730034
:100080000C9473000C9473000C9473000C94730024
:100090000C9473000C9473000C9473000C94730014
:1000A0000C9473000C9473000C94730011241FBE05
:1000B000CFEFDAE0DEBFCDBF16E0A0E0B1E0E4E3D1
:1000C000F6E002C005900D92A03DB107D9F716E009
:1000D000A0EDB6E001C01D92A23DB107E1F70E947C
:1000E00007010C9418030C940000CF93DF93C8EF22
:1000F000D1E080E090E00E94CE002197D1F780E02F
:1001000090E060E070E00E948800DF91CF91089558
:100110000F931F93CF93DF93EB0106EC10E0806801
:10012000F8010995CE018064F8010995DF91CF911E
:100130001F910F910895CF93DF93209A249A269AC6
:10014000229A219A859A1092640081E58CBD2C98A0
:100150002C9AC6ECD0E081E290E0FE01099580EB9C
:1001600090E0FE01099584E090E0FE01099584E1AC
:1001700090E0FE01099580E290E0FE0109958CE097
:1001800090E0FE010995DF91CF9108952E9828986F
:100190008EBD0DB407FEFDCF289A08952E9A28989B
:1001A0008EBD0DB407FEFDCF289A08950F931F93BF
:1001B000FC01E61BF70B021B130BE09FC001E19F44
:1001C000900DF09F900D1124FA01E61BF70BBF0173
:1001D0000E94C002260F371F3093D1062093D0060D
:1001E0001F910F910895EAE7F0E080818760808396
:1001F000ACE7B0E08C9187648C938C9180628C9397
:100200008081806880838081806480830895CF931B
:10021000DF93CDB7DEB7E0970FB6F894DEBF0FBE21
:10022000CDBF0E949B000E94F300EAE7F0E08081CE
:100230008062808381E090E00CE710E00F2EFAE707
:10024000EF2EFF24F02D0F2EF9E7CF2EDD24F02D19
:100250000F2EF9E98F2EF2E09F2EF02D0F2EF8E8E9
:100260006F2EF0E07F2EF02D38C00E947500F8014F
:10027000808190E0BE016F5F7F4F42E050E00E94BE
:10028000E702CE010196F401099580E090E061E07B
:1002900070E0F30109958A2D90E0BE016F5E7F4FFB
:1002A0004AE050E00E94E702CE014196F401099530
:1002B00080E090E062E070E0F30109958B2D90E022
:1002C000BE016F5D7F4F4AE050E00E94E702CE0121
:1002D0008196F401099580E090E0F8012081287F63
:1002E0002083208124602083F701208120622083E5
:1002F000F601A080F8012081287F208320812560DD
:100300002083F701208120622083F601B0800196CE
:10031000F3E0883E9F070CF3A8CFEF92FF920F9374
:100320001F93CF93DF937C018B016830710528F414
:1003300060E070E00E948800E801C80108978830FA
:10034000910538F4C70161E070E00E948800E8017F
:100350002897C80140978830910538F4C70162E0BA
:1003600070E00E948800E8016097C80148978830D3
:10037000910538F4C70163E070E00E948800E8014D
:100380006897C80180978830910538F4C70164E008
:1003900070E00E948800E801A097C8018897883023
:1003A000910538F4C70165E070E00E948800E8011B
:1003B000A897209729F481E090E00E94CE0010C019
:1003C000C130D10529F482E090E00E94CE0010C037
:1003D000C230D10529F484E090E00E94CE0010C024
:1003E000C330D10529F488E090E00E94CE0010C00F
:1003F000C430D10529F480E190E00E94CE0010C005
:10040000C530D10529F480E290E00E94CE000FC0F3
:10041000C630D10529F480E490E00E94CE0007C0E8
:10042000C730D10521F480E890E00E94CE00DF9132
:10043000CF911F910F91FF90EF9008956F927F924F
:100440008F929F92AF92BF92CF92DF92EF92FF92E4
:100450000F931F93CF93DF937C015B016A014A01E5
:10046000881A990A261B370B48175907C4F0390117
:10047000660C771C8901EC01C801B4010E94C0021E
:100480006A0D7B1DCE0101960E948D012296CE152C
:10049000DF052CF0060D171DCC16DD066CF7DF917D
:1004A000CF911F910F91FF90EF90DF90CF90BF9071
:1004B000AF909F908F907F906F900895EF92FF92F2
:1004C0000F931F93CF93DF93C82F0F2EFEECEF2EC9
:1004D000F0E0FF2EF02D80E090E0F70109952C2F41
:1004E00030E0C90180978C01000F111F000F111F10
:1004F000080F191F00511B4FE901CC0FDD1FCC0F56
:10050000DD1FC20FD31FCB5ADB4FF80181918F0142
:1005100090E0F70109950C171D07B9F780E090E00E
:10052000F7010995DF91CF911F910F91FF90EF9007
:100530000895CF93DF93EC018881882331F02196D1
:100540000E945E0289918823D9F7DF91CF910895A7
:100550000F931F93CF93DF93082F192FC0E0D0E0A4
:10056000F80181918F0190E00E94CE002196F1E088
:10057000C83FDF07A9F7DF91CF911F910F91089531
:1005800097FB092E07260AD077FD04D00CD006D0A1
:1005900000201AF4709561957F4F0895F6F79095B5
:1005A00081959F4F0895AA1BBB1B51E107C0AA1F4D
:1005B000BB1FA617B70710F0A61BB70B881F991F04
:1005C0005A95A9F780959095BC01CD010895FB013E
:1005D0009F01E8944230C4F04532B4F44A3029F423
:1005E00097FB1EF4909581959F4F642F77270E946B
:1005F000D302805D8A330CF0895D8193CB01009733
:10060000A1F716F45DE251931082C9010C9408031E
:10061000DC01FC01672F71917723E1F7329704C069
:100620007C916D9370836291AE17BF07C8F30895F4
:04063000F894FFCF6C
:1006340000000000000000000000000000000000B6
:1006440000000000000000000000000000000000A6
:100654000000000000000000000000000000000096
:100664000000000000000000000000000000000086
:100844000000000000000000000000E0F0F8FCFCE4
:10085400FEFEFEFE1E0E020000000000000000006E
:100864000000000000000000000000000000000084
:100874000000000000000000000000000000000074
:100884000000000000000000000000000000000064
:100894000000000000000000000000000000000351
:1008A4000F1F3F7FFFFFFFFFFFFEFCF8F8F0F8FE8D
:1008B400FEFCF8E000000000000000000000000062
:1008C4000000000000000000000000000000000024
:1008D4000000000000000000000000000000000014
:1008E40000000000000000000000F8FCFEFEFFFF16
:1008F400F3E0E0C0C0C0E0E0F1FFFFFFFFFFFFFF57
:10090400FFFFFFFFFFFFFFFF3E00000000000000AD
:1009140000000000000000000000000000000000D3
:1009240000000000000000000000000000000000C3
:100934000000000000000000000000000000FFFFB5
:10094400FFFFFFFFFFFFFFFFFFFFFFFFFFFFFFFFB3
:10095400FFFFFFFFFFFFFF7F3F1F070100000000B5
:100964000000000000000000000000000000000083
:100974000000000000000000000000000000000073
:100984000000000000000000000000000000000063
:100994000000FFFFFFFFFFFFFF7F3F1F0F0F0F0749
:1009A4000707070707070303010100000000000011
:1009B4000000000000000000000000000000000033
:1009C4000000000000000000000000000000000023
:1009D4000000000000000000000000000000000013
:1009E4000000000000003F1F0F070301000000008B
:1009F40000000000000000000000000000000000F3
:100A040000000000000000000000000000000000E2
:100A140000000000000000000000000000000000D2
:100A2400000000000000005F000000070007001441
:100A34007F147F14242A7F2A122313086462364900
:100A44005522500005030000001C224100004122F1
:100A54001C0014083E081408083E08080050300022
:100A6400000808080808006060000020100804025C
:100A74003E5149453E00427F400042615149462172
:100A840041454B311814127F1027454545393C4ADE
:100A9400494930017109050336494949360649492E
:100AA400291E003636000000563600000814224184
:100AB40000141414141400412214080201510906EC
:100AC400324979413E7E1111117E7F494949363EB2
:100AD400414141227F4141221C7F494949417F09CB
:100AE4000909013E4149497A7F0808087F00417F8E
:100AF40041002040413F017F081422417F40404093
:100B0400407F020C027F7F0408107F3E4141413E3A
:100B14007F090909063E4151215E7F09192946468C
:100B24004949493101017F01013F4040403F1F20B5
:100B340040201F3F4038403F631408146307087087
:100B440008076151494543007F41410002040810F0
:100B5400200041417F000402010204404040404023
:100B6400000102040020545454787F484444383827
:100B740044444420384444487F3854545418087E2C
:100B84000901020C5252523E7F0804047800447D4D
:100B940040002040443D007F1028440000417F4035
:100BA400007C041804787C080404783844444438ED
:100BB4007C14141408081414187C7C0804040848D1
:100BC40054545420043F4440203C4040207C1C208A
:100BD40040201C3C4030403C44281028440C5050D9
:100BE400503C4464544C44000836410000007F00EB
:100BF400000041360800100808100878464146787D
:00000001FF
